:0400000033EF3AF0B0
:10746600000151EF3BF0016EA4A8FED701C079FFE1
:107476001200700ED36E000ED26E000E9B6E000EC2
:107486009A6E120059EC3AF03CEC3AF04EEC3AF0B7
:10749600DAEC3AF01200080EB96E900EA66E260EC1
:1074A600BA6E220E7B6E000E7C6E1200000E8D6E82
:1074B600000E8C6E000E896E030E8A6E000E8B6EA9
:1074C600070E966EEF0E926E9368BB0E946EBF0E0D
:1074D600956E0F015D697A0E0F015C6F0F015B6996
:1074E6001200046E7C0E36EC3AF0045036EC3AF09C
:1074F600000E066E000E056E06BE06D0065010E1A2
:10750600080E055CD8B00CD005500224D96E065082
:107516000320DA6EDF5036EC3AF0054A062AECD73D
:107526007E0E36EC3AF01200076E000E086E000E64
:10753600096E000E0A6E000E0B6E0750056E066A87
:10754600D89005360636D89005360636D8900536D4
:10755600063605C00CF006C00DF0000E0DBEFF0E7F
:107566000E6E0F6E01C005F0050E066ED890053240
:10757600062EFCD705500C240C6E000E0D200D6E49
:10758600000E0E200E6E000E0F200F6E0CC008F0BF
:107596000DC009F00EC00AF00FC00BF008C001F0D4
:1075A60009C002F00AC003F00BC004F01200800EFE
:1075B6006F6E6E50E00B800AD8A4FBD7000E726E79
:1075C600000E0E01FA6F000E0E01FB6F000E0E018B
:1075D600F86F000E0E01F96F0E01FE690E01FF69CC
:1075E6000E01FC690E01FD69000E0E01E26F000E30
:1075F6000E01E36F880E0E01E06F800E0E01E16F43
:10760600000E0E01E66F000E0E01E76FCC0E0E01A6
:10761600E46FC00E0E01E56F000E0E01EA6F000E5C
:107626000E01EB6F000E0E01E86F000E0E01E96F02
:10763600000E0E01EE6F000E0E01EF6F000E0E0132
:10764600EC6F000E0E01ED6F000E0E01F26F000ED4
:107656000E01F36F000E0E01F06F000E0E01F16FBA
:10766600000E0E01F66F000E0E01F76F000E0E01F2
:10767600F46F000E0E01F56F000E0E01436F980EAB
:107686000E01446F010E0E01456F000E6F6E6ECF38
:1076960001F0E00E0116D8B41200F9D745EC3AF025
:1076A600829C8B9C949C7080708A709E709C608A71
:1076B600609C609460904EEC3AF0050E226E050ECA
:1076C600236E050E246E050E256E050E266E050E1E
:1076D600276E050E286E050E296E430E1D6E060ECC
:1076E6001E6E000E1F6E000E206E080E216E010E1D
:1076F6001C6E1C0E136E000E146E61EC3EF08B8435
:10770600150E1B6E4B0E1A6EBE0EE82EFED71A2EE7
:10771600FCD71B2EFAD700D08B94030E1B6E080ED7
:107726001A6E770EE82EFED71A2EFCD71B2EFAD726
:1077360000F01C0E146E000E156E4CEC3DF00009A8
:10774600D8B4BBD78B84400E1D180EE1060E1E184A
:107756001F102010D8A408D0220E026E000E036E51
:10776600010E74EC3AF0A9D7410E1D180EE1060E73
:107776001E181F102010D8A408D0220E026E000E6C
:10778600036E020E74EC3AF098D7420E1D1895E17E
:10779600060E1E181F102010D8A48FD7220E026EB8
:1077A600000E036E030E74EC3AF087D7096E000ED6
:1077B6000A6E000E0B6E000E0C6E000E0D6E000EA5
:1077C600106E000E116E000E126E000E136E035038
:1077D600030B0E6E0338E842070B0F6E0250056E60
:1077E600066AD89005360636D89005360636D890FD
:1077F6000536063605C010F006C011F0000E11BEA3
:10780600FF0E126E136E0F501024106E000E112014
:10781600116E000E1220126E000E1320136E10C091
:1078260005F011C006F012C007F013C008F0020EF2
:10783600D8900536063607360836E82EF9D705C03D
:1078460010F006C011F007C012F008C013F00E5079
:107856001024106E000E1120116E000E1220126EF2
:10786600000E1320136E10C006F011C007F012C0F0
:1078760008F0056A05C010F006C011F007C012F046
:1078860008C013F009501024106E000E1120116E5E
:10789600000E1220126E000E1320136E10C006F09A
:1078A60011C007F012C008F0056A05C010F006C046
:1078B60011F007C012F008C013F001501024106E2A
:1078C600000E1120116E000E1220126E000E1320F3
:1078D600136E10C00AF011C00BF012C00CF013C0EA
:1078E6000DF00AC001F00BC002F00CC003F00DC091
:1078F60004F01200000E126E020E0518D8A481D0F4
:1079060008C0D9FF09C0DAFF01C0DFFF01C00EF0D1
:1079160002C00FF003C010F004C011F00FC00EF04B
:1079260010C00FF011C010F0116A0EC001F00FC0A8
:1079360002F010C003F011C004F006C0D9FF07C062
:10794600DAFF01C0DFFF01C00EF002C00FF003C076
:1079560010F004C011F00FC00EF010C00FF011C0EF
:1079660010F0116A0EC001F00FC002F010C003F053
:1079760011C004F00150030B126E01C00EF002C0DC
:107986000FF003C010F004C011F0030ED8900E36AD
:107996000F3610361136E82EF9D70EC001F00FC09B
:1079A60002F010C003F011C004F00150E00B1224E5
:1079B600126E1250080F126E1250EB0B0CC0D9FF4C
:1079C6000DC0DAFFDF6E01C00EF002C00FF003C07B
:1079D60010F004C011F00FC00EF010C00FF011C06F
:1079E60010F0116A0EC001F00FC002F010C003F0D3
:1079F60011C004F00AC0D9FF0BC0DAFF01C0DFFFD7
:107A0600120006C0D9FF07C0DAFF000EDF6E08C0FD
:107A1600D9FF09C0DAFF000EDF6E01C00EF002C00A
:107A26000FF003C010F004C011F0050ED8900E360A
:107A36000F3610361136E82EF9D70EC001F00FC0FA
:107A460002F010C003F011C004F00CC0D9FF0DC045
:107A5600DAFF01C0DFFF01C00EF002C00FF003C065
:107A660010F004C011F00FC00EF010C00FF011C0DE
:107A760010F0116A0EC001F00FC002F010C003F042
:107A860011C004F00AC0D9FF0BC0DAFF01C0DFFF46
:107A96001200000E166E60AE83D062A61ED014C011
:107AA600D9FF15C0DAFF020EDF6E64CF01F061CF99
:107AB60002F062CF03F06350D9EC3BF020EE01F008
:107AC6001450D9261550DA2201C0DEFF02C0DEFFAF
:107AD60003C0DEFF04C0DEFF19D014C0D9FF15C0F5
:107AE600DAFF010EDF6E62CF01F0615097EC3AF0DB
:107AF60020EE01F01450D9261550DA2201C0DEFF1F
:107B060002C0DEFF03C0DEFF04C0DEFF20EE05F08C
:107B16001450D9261550DA2265CFDFFF20EE06F085
:107B26001450D9261550DA2266CFDFFF20EE07F073
:107B36001450D9261550DA2267CFDFFF20EE08F061
:107B46001450D9261550DA2268CFDFFF20EE09F04F
:107B56001450D9261550DA2269CFDFFF20EE0AF03D
:107B66001450D9261550DA226ACFDFFF20EE0BF02B
:107B76001450D9261550DA226BCFDFFF20EE0CF019
:107B86001450D9261550DA226CCFDFFF20EE0DF007
:107B96001450D9261550DA226DCFDFFF609E89D0AA
:107BA6000F0130AF88D00F0132A71FD014C0D9FF04
:107BB60015C0DAFF020EDF6E34CF01F031CF02F0CE
:107BC60032CF03F00F013351D9EC3BF020EE01F038
:107BD6001450D9261550DA2201C0DEFF02C0DEFF9E
:107BE60003C0DEFF04C0DEFF1AD014C0D9FF15C0E3
:107BF600DAFF010EDF6E32CF01F00F01315197EC43
:107C06003AF020EE01F01450D9261550DA2201C0C0
:107C1600DEFF02C0DEFF03C0DEFF04C0DEFF20EE93
:107C260005F01450D9261550DA2235CFDFFF20EEA5
:107C360006F01450D9261550DA2236CFDFFF20EE93
:107C460007F01450D9261550DA2237CFDFFF20EE81
:107C560008F01450D9261550DA2238CFDFFF20EE6F
:107C660009F01450D9261550DA2239CFDFFF20EE5D
:107C76000AF01450D9261550DA223ACFDFFF20EE4B
:107C86000BF01450D9261550DA223BCFDFFF20EE39
:107C96000CF01450D9261550DA223CCFDFFF20EE27
:107CA6000DF01450D9261550DA223DCFDFFF0F0113
:107CB600309F010E166E779216501200000E166E49
:107CC600000E176E000E186E000E196E000E156E61
:107CD6000F0120B784D020EE01F01350D92614509E
:107CE600DA22DECF01F0DECF02F0DECF03F0DECF08
:107CF60004F013C0D9FF14C0DAFFDF50056E160E6C
:107D0600066E000E076E170E086E000E096E180E30
:107D16000A6E000E0B6E190E0C6E000E0D6E7DECCB
:107D26003CF016C023FF17C024FF18C021FF19C05E
:107D360022FF20EE05F01350D9261450DA22DF5028
:107D46000F01256F20EE06F01350D9261450DA22C3
:107D5600DF500F01266F20EE07F01350D92614507E
:107D6600DA22DF500F01276F20EE08F01350D926D4
:107D76001450DA22DF500F01286F20EE09F013505D
:107D8600D9261450DA22DF500F01296F20EE0AF0AF
:107D96001350D9261450DA22DF500F012A6F20EE35
:107DA6000BF01350D9261450DA22DF500F012B6F37
:107DB60020EE0CF01350D9261450DA22DF500F01B2
:107DC6002C6F20EE0DF01350D9261450DA22DF5016
:107DD6000F012D6F0F012087010E156E12000F0186
:107DE60010B784D020EE01F01350D9261450DA22B1
:107DF600DECF01F0DECF02F0DECF03F0DECF04F0FF
:107E060013C0D9FF14C0DAFFDF50056E160E066EDA
:107E1600000E076E170E086E000E096E180E0A6E1B
:107E2600000E0B6E190E0C6E000E0D6E7DEC3CF006
:107E360016C013FF17C014FF18C011FF19C012FF98
:107E460020EE05F01350D9261450DA22DF500F0128
:107E5600156F20EE06F01350D9261450DA22DF50A3
:107E66000F01166F20EE07F01350D9261450DA22B0
:107E7600DF500F01176F20EE08F01350D92614506B
:107E8600DA22DF500F01186F20EE09F01350D926C1
:107E96001450DA22DF500F01196F20EE0AF013504A
:107EA600D9261450DA22DF500F011A6F20EE0BF09C
:107EB6001350D9261450DA22DF500F011B6F20EE23
:107EC6000CF01350D9261450DA22DF500F011C6F24
:107ED60020EE0DF01350D9261450DA22DF500F0190
:107EE6001D6F0F011087010E156E12000F0100B7EE
:107EF600120020EE01F01350D9261450DA22DECFFC
:107F060001F0DECF02F0DECF03F0DECF04F013C0C7
:107F1600D9FF14C0DAFFDF50056E160E066E000E8E
:107F2600076E170E086E000E096E180E0A6E000E0A
:107F36000B6E190E0C6E000E0D6E7DEC3CF016C02D
:107F460003FF17C004FF18C001FF19C002FF20EE8F
:107F560005F01350D9261450DA22DF500F01056FB1
:107F660020EE06F01350D9261450DA22DF500F0106
:107F7600066F20EE07F01350D9261450DA22DF5090
:107F86000F01076F20EE08F01350D9261450DA229D
:107F9600DF500F01086F20EE09F01350D926145058
:107FA600DA22DF500F01096F20EE0AF01350D926AE
:107FB6001450DA22DF500F010A6F20EE0BF0135037
:107FC600D9261450DA22DF500F010B6F20EE0CF089
:107FD6001350D9261450DA22DF500F010C6F20EE11
:107FE6000DF01350D9261450DA22DF500F010D6F11
:0A7FF6000F010087010E156E120046
:020000040020DA
:08000000FFFFFFFFFFFFFFFF00
:020000040030CA
:0E00000015027F7CFF8891FF0FC00FE00F40BC
:00000001FF
