:0400000043EF3FF09B
:107E8600000163EF3FF0700ED36E000ED26E000E4F
:107E96009B6E000E9A6E12006EEC3FF046EC3FF0C1
:107EA60058EC3FF089EC3FF01200080EB96E900EC8
:107EB600A66E260EBA6E220E7B6E000E7C6E120029
:107EC6004FEC3FF07080708A608A609C609460908E
:107ED60058EC3FF0FFD7000E8D6E000E8C6E000E34
:107EE600896E030E8A6EC00E8B6E070E966EEF0EAF
:107EF600926E9368BB0E946EBF0E956E0F015D6910
:107F06007A0E0F015C6F0F015B691200800E6F6EB7
:107F16006E50E00B800AD8A4FBD7000E726E000EDE
:107F26000E01FA6F000E0E01FB6F000E0E01F86FC8
:107F3600000E0E01F96F0E01FE690E01FF690E01BA
:107F4600FC690E01FD69000E0E01E26F000E0E01C6
:107F5600E36F880E0E01E06F800E0E01E16F000EDA
:107F66000E01E66F000E0E01E76FCC0E0E01E46FF8
:107F7600C00E0E01E56F000E0E01EA6F000E0E0137
:107F8600EB6F000E0E01E86F000E0E01E96F000E9A
:107F96000E01EE6F000E0E01EF6F000E0E01EC6F7C
:107FA600000E0E01ED6F000E0E01F26F000E0E01B7
:107FB600F36F000E0E01F06F000E0E01F16F000E52
:107FC6000E01F66F000E0E01F76F000E0E01F46F34
:107FD600000E0E01F56F000E0E01436F980E0E0196
:107FE600446F010E0E01456F000E6F6E6ECF01F0ED
:0A7FF600E00E0116D8B41200F9D70E
:020000040020DA
:08000000FFFFFFFFFFFFFFFF00
:020000040030CA
:0E00000015087F7CFF8891FF0FC00FE00F40B6
:00000001FF
