:040000004BEF00F0D2
:100008005182FACF2FF0FBCF30F0E9CF31F0EACFB1
:1000180032F0E1CF33F0E2CF34F0D9CF35F0DACF98
:1000280036F0F3CF37F0F4CF38F0F6CF39F0F7CF1A
:100038003AF0F8CF3BF0F5CF3CF0F2BAF2A403D097
:1000480039EC04F006D0F2BC9DA003D09EB04EEC73
:1000580004F03CC0F5FF3BC0F8FF3AC0F7FF39C0D9
:10006800F6FF38C0F4FF37C0F3FF36C0DAFF35C0FB
:10007800D9FF34C0E2FF33C0E1FF32C0EAFF31C02C
:10008800E9FF30C0FBFF2FC0FAFF5192110062EF69
:1000980004F0000E476E60AE83D062A61ED045C045
:1000A800D9FF46C0DAFF020EDF6E64CF3DF061CFA4
:1000B8003EF062CF3FF0635062EC01F020EE01F0B9
:1000C8004550D9264650DA223DC0DEFF3EC0DEFF4D
:1000D8003FC0DEFF40C0DEFF19D045C0D9FF46C093
:1000E800DAFF010EDF6E62CF3DF0615053EC03F092
:1000F80020EE01F04550D9264650DA223DC0DEFFF9
:100108003EC0DEFF3FC0DEFF40C0DEFF20EE05F050
:100118004550D9264650DA2265CFDFFF20EE06F09B
:100128004550D9264650DA2266CFDFFF20EE07F089
:100138004550D9264650DA2267CFDFFF20EE08F077
:100148004550D9264650DA2268CFDFFF20EE09F065
:100158004550D9264650DA2269CFDFFF20EE0AF053
:100168004550D9264650DA226ACFDFFF20EE0BF041
:100178004550D9264650DA226BCFDFFF20EE0CF02F
:100188004550D9264650DA226CCFDFFF20EE0DF01D
:100198004550D9264650DA226DCFDFFF609E89D0C0
:1001A8000F0130AF88D00F0132A71FD045C0D9FF4B
:1001B80046C0DAFF020EDF6E34CF3DF031CF3EF09D
:1001C80032CF3FF00F01335162EC01F020EE01F025
:1001D8004550D9264650DA223DC0DEFF3EC0DEFF3C
:1001E8003FC0DEFF40C0DEFF1AD045C0D9FF46C081
:1001F800DAFF010EDF6E32CF3DF00F01315153ECC3
:1002080003F020EE01F04550D9264650DA223DC0D1
:10021800DEFF3EC0DEFF3FC0DEFF40C0DEFF20EE57
:1002280005F04550D9264650DA2235CFDFFF20EEBB
:1002380006F04550D9264650DA2236CFDFFF20EEA9
:1002480007F04550D9264650DA2237CFDFFF20EE97
:1002580008F04550D9264650DA2238CFDFFF20EE85
:1002680009F04550D9264650DA2239CFDFFF20EE73
:100278000AF04550D9264650DA223ACFDFFF20EE61
:100288000BF04550D9264650DA223BCFDFFF20EE4F
:100298000CF04550D9264650DA223CCFDFFF20EE3D
:1002A8000DF04550D9264650DA223DCFDFFF0F0129
:1002B800309F010E476E7792475012000001726F0F
:1002C800000E0001736F000E746F000E756F000E44
:1002D800766F000E0001796F000E7A6F000E7B6F4B
:1002E800000E7C6F3F50030B0001776F3F38E842E8
:1002F800070B0001786F3E50416E426AD890413634
:100308004236D89041364236D8904136423641C0BE
:1003180079F042C07AF00001000E7ABFFF0E7B6FC1
:100328007C6F00017851000179250001796F000E7A
:1003380000017A2100017A6F000E00017B21000183
:100348007B6F000E00017C2100017C6F79C041F0B9
:100358007AC042F07BC043F07CC044F0020ED890D3
:100368004136423643364436E82EF9D741C079F053
:1003780042C07AF043C07BF044C07CF00001775162
:10038800000179250001796F000E00017A21000132
:100398007A6F000E00017B2100017B6F000E0001C7
:1003A8007C2100017C6F79C042F07AC043F07BC0A9
:1003B80044F0416A41C079F042C07AF043C07BF012
:1003C80044C07CF000017251000179250001796F69
:1003D800000E00017A2100017A6F000E00017B21D6
:1003E80000017B6F000E00017C2100017C6F79C049
:0803F80042F07AC043F07BC023
:1004000044F0416A41C079F042C07AF043C07BF0C9
:1004100044C07CF03D50000179250001796F000E49
:1004200000017A2100017A6F000E00017B2100019A
:100430007B6F000E00017C2100017C6F79C073F09E
:100440007AC074F07BC075F07CC076F073C03DF06C
:1004500074C03EF075C03FF076C040F0120085ECED
:1004600004F07080708A608A609C6094609094EC64
:1004700004F0500E3D6E090E3E6EB5EC04F09AD0BD
:10048000F28C060E456E000E466E4DEC00F0000933
:10049000D8B469D08B8407C048F055D048C026F046
:1004A000270E3D6E000E3E6E0C0E3F6E000E406E2F
:1004B000000E426E080E416EA2EC03F054D048C00C
:1004C0001DF01E0E3D6E000E3E6E0C0E3F6E000EB9
:1004D000406E000E426E080E416EA2EC03F043D057
:1004E00048C014F0150E3D6E000E3E6E0C0E3F6EB1
:1004F000000E406E000E426E080E416EA2EC03F03C
:1005000032D048C069F06A0E3D6E000E3E6E0C0E91
:100510003F6E000E406E000E426E080E416EA2EC61
:1005200003F021D048C060F0610E3D6E000E3E6EBB
:100530000C0E3F6E000E406E000E426E080E416EB5
:10054000A2EC03F010D04850400AD8B4A7D7010A53
:10055000D8B4B5D7030AD8B4C3D7010AD8B4D1D711
:10056000070AD8B4DFD70550D8B48BD7F29EF29CD7
:10057000260E3E6E000E3F6EC4EC03F01D0E3E6E66
:10058000000E3F6EC4EC03F0140E3E6E000E3F6E84
:10059000C4EC03F0690E3E6E000E3F6EC4EC03F037
:1005A000600E3E6E000E3F6EC4EC03F0000E056E52
:1005B000BFEC04F0F28E64D7800E6F6E6E50E00BCD
:1005C000800AD8A4FBD7000E726E000E0E01FA6FDF
:1005D000000E0E01FB6F000E0E01F86F000E0E01F3
:1005E000F96F0E01FE690E01FF690E01FC690E0133
:1005F000FD69000E0E01E26F000E0E01E36F880E22
:100600000E01E06F800E0E01E16F000E0E01E66F2D
:10061000000E0E01E76FCC0E0E01E46FC00E0E014E
:10062000E56F000E0E01EA6F000E0E01EB6F000E7B
:100630000E01E86F000E0E01E96F000E0E01EE6F65
:10064000000E0E01EF6F000E0E01EC6F000E0E019A
:10065000ED6F000E0E01F26F000E0E01F36F000E33
:100660000E01F06F000E0E01F16F000E0E01F66F1D
:10067000000E0E01F76F000E0E01F46F000E0E015A
:10068000F56F030E0E01436F980E0E01446F010EBD
:100690000E01456F000E6F6E6ECF3DF0E00E3D1601
:1006A000D8B41200F9D70001726F000E0001736F09
:1006B000000E746F000E756F000E766F00017251A0
:1006C000416E426AD89041364236D8904136423621
:1006D000D8904136423641C077F042C078F00001F0
:1006E000000E78BFFF0E796F7A6F3DC041F0050EA6
:1006F000426ED8904132422EFCD7415000017725FE
:100700000001776F000E000178210001786F000E64
:10071000000179210001796F000E00017A210001AA
:100720007A6F77C073F078C074F079C075F07AC0D2
:1007300076F073C03DF074C03EF075C03FF076C0F7
:1007400040F012003FC045F040C046F03DC043F0CD
:100750003EC044F010D045C0D9FF46C0DAFFDF509C
:10076000476E454A462A43C0D9FF44C0DAFF47C016
:10077000DFFF434A442A4106D8A042064128EBE164
:100780004228D8B41200E7D7FE0EAFEC04F0000EFA
:10079000416E000E406E41BE06D0415010E1090E80
:1007A000405CD8B00CD040503E24D96E41503F2020
:1007B000DA6EDF50AFEC04F0404A412AECD77E0EEF
:1007C000AFEC04F01200300ECD6E000EAA6E8A0E51
:1007D000CF6ED00ECE6ECE50CFCF3FF0406A3FC02E
:1007E00040F03F6A3F104F6E4050506E9E909D808B
:1007F0008E0E3D6E090E3E6EB5EC04F0BFEC04F0BB
:100800001200120ED56ED80ED76EEF0ED66ED650E1
:10081000D7CF3FF0406A3FC040F03F6A3F10496E7B
:1008200040504A6EF294F28A900E3D6E090E3E6E72
:10083000BAEC04F0C1EC04F01200000E8D6E000E54
:100840008C6E000E896E030E8A6EC00E8B6E070EC4
:10085000966EEF0E926EFB0E936EFB0E946EBF0EB5
:10086000956E0F015D697A0E0F015C6F0F015B6978
:100870001200F2944A50D76E49C0D6FF4B504C102C
:10088000D8B4120001D812000500FA6E4B50FD6E6C
:100890004C50FE6EF850FF6EFA5012009E90505071
:1008A000CF6E4FC0CEFF034A042A045004E1040E69
:1008B000035CD8A0120075EC04F0000E046E000E6C
:1008C000036E120000EE60F0120EEE6AE806FDE123
:1008D00000EE01F02E0EEE6AE806FDE15190519215
:1008E000000EF86E00012FEF02F04D504E10D8B4FC
:1008F000120001D812000500FA6E4D50FD6E4E50E8
:10090000FE6EF850FF6EFA501200C3EC04F01DECBE
:1009100004F09FEC04F0E3EC03F001EC04F094EC41
:1009200004F0DCEC02F01200080EB96E900EA66E18
:10093000260EBA6E8A0E7B6E000E7C6E1200700E52
:10094000D36E000ED26E000E9B6E000E9A6E1200D9
:10095000C5EC04F0F29EF29C010E056E12003D6E95
:10096000A4A8FED73DC079FF12003DC04DF03EC0A7
:100970004EF012003DC04BF03EC04CF01200CD8056
:100980001200D58E1200D09E1200CD9012001200DF
:02099000120053
:020000040020DA
:08000000FFFFFFFFFFFFFFFF00
:020000040030CA
:0E00000015127F7CFF8991FF0FC00FE00F40AB
:020000040000FA
:0000960169
